:0C053A000A083F065B4F666D7D077F6F6F
:03000B00020003ED
:03000300B2833293
:0D052D00209005D292D29122C292C291225A
:1002E800751370E4F598C287C286C285C284759971
:1002F8003F3099FDC299758902758CF6758AF67535
:10030800A882D28CC280D280C280E4F5140514E59C
:1003180014B414F9208204D28180F985A012C28114
:10032800AC12E41201BEE4FBFA797F78431201179C
:10033800C004C005C006C007AC13E41201BED00358
:10034800D002D001D00012000E1201F28F127E00EE
:100358007C037DE8120285AB05EBFF7E007C037D04
:10036800E8120273C3E5129FFFE49EFE7C007D64E1
:10037800120285AA05EBFF7E007C037DE81202735A
:10038800C3E5129FFDE49EFCEA75F064A4FFC3ED8B
:100398009FFFEC95F0FE7C007D0A120285AF05EB0D
:1003A80075F0E8A4FEC3E5129EFEEA75F064A4FDAC
:1003B800C3EE9DFEEF75F00AA4FDC3EE9DFEEB6053
:1003C8001BC2842408F8E6F5993099FDC299E4F532
:1003D800140514E514B419F9D2848016C2847599E9
:1003E8003F3099FDC299E4F5140514E514B419F9E0
:1003F800D284EB706DEA601BC2852408F8E6F59993
:100408003099FDC299E4F5140514E514B419F9D22C
:10041800858016C28575993F3099FDC299E4F51417
:100428000514E514B419F9D285EA7050EF601BC2BF
:10043800862408F8E6F5993099FDC299E4F5140583
:1004480014E514B419F9D2868032C28675993F3002
:1004580099FDC299E4F5140514E514B419F9D28686
:10046800801AC28574082AF8E6F5993099FDC29970
:10047800E4F5140514E514B419F9D285C287740893
:100488002EF8E6F5993099FDC299E4F5140514E5BE
:0904980014B419F9D28702030C17
:10000E00EC4D6011E8497017ED33EC3304600DE4EC
:10001E00FCFFFEFD22E933E8330470F802025E12A3
:10002E00022958046009E4CC2481500628500902A4
:10003E000268284003020265C0E0EB4A7044B980B2
:10004E0006D0E0FB020254EF4E701CBD8008EBFFA1
:10005E00EAFEE9FD80EBE98DF0A4FEE5F00200F783
:10006E00E9CDF9EAFEEBFFEF89F0A4FCE5F0CE89CD
:10007E00F0A42EFFE435F0CD89F0A42DFEE435F08A
:10008E008067EF4E7005BD80D780C3EF8BF0A4ACB8
:10009E00F0EE8BF0A42CFCE435F0F8EF8AF0A42CF3
:1000AE00E5F038FCE433CB8DF0A42CFCE5F03BF806
:1000BE00EE8AF0A42CFCE5F038F8E433CF89F0A4F6
:1000CE002CFCE5F038CF3400CE89F0A42FFFE5F0FC
:1000DE003EFEE433C98DF0A42EFEE5F039CD8AF054
:1000EE00A42FFFE5F03EFEE43DFD33D0E0FB5007CC
:1000FE000BBB000F020268EC2CFCEF33FFEE33FE5D
:06010E00ED33FD0202408A
:10011400020268EC5D046005E85904700302025EA3
:10012400120229580460F6EC4860F2EC7004FDFEFB
:10013400FF22C860DB2481C85009C39860025006BE
:100144000202659850CAF582E9294B4A7005AB82D0
:1001540002025475F0007C1A7880C3EF9BEE9AED8E
:1001640099400DC3EF9BFFEE9AFEED99FDE842F036
:10017400DC23ACF0D0E0FFD0E0FED0E0FDAB822089
:10018400E7101BEB60BAEC2CFCEF33FFEE33FEED13
:1001940033FD020240E803F830E705C0F075F000D3
:1001A400EF2FFFEE33FEED33FD40B830E7C280AAF7
:1001B40075F020800E75F010800575F0087D007EC6
:1001C400007F003392D530D5031202DAEC334010AD
:1001D400EF33FFEE33FEED33FDEC33FCD5F0ED22CF
:0E01E400E5F0247EA2D513CC92E7CDCEFF220B
:1001F200EDD2E7CD33EC3392D524814006E4FFFE05
:10020200FDFC22FCE4CFCECDCC24E0501174FF8063
:10021200EDC3CC13CCCD13CDCE13CECF13CF047000
:07022200F030D5DE0202DA24
:10022900E9D2E7C933E833F892D5EDD2E7CD33EC1B
:0702390033FC5002B2D52294
:10024000EC30E7100FBF000C0EBE00080DBD00041F
:100250000BEB6014A2D5EB13FCED92E7FD2274FFCB
:10026000FCFDFEFF22E480F8A2D574FF13FC7D8024
:03027000E480EF38
:030000000204A156
:0C04A100787FE4F6D8FD7581140204E8B1
:10027300EF8DF0A4A8F0CF8CF0A428CE8DF0A42E9F
:02028300FE2259
:10028500BC000BBE0029EF8DF084FFADF022E4CC5D
:10029500F875F008EF2FFFEE33FEEC33FCEE9DEC26
:1002A500984005FCEE9DFE0FD5F0E9E4CEFD22ED6C
:1002B500F8F5F0EE8420D21CFEADF075F008EF2FB6
:1002C500FFED33FD4007985006D5F0F222C398FDA7
:0502D5000FD5F0EA2244
:0E02DA00C3E49FFFE49EFEE49DFDE49CFC2235
:1004AD000202E8E493A3F8E493A34003F68001F27B
:1004BD0008DFF48029E493A3F85407240CC8C33350
:1004CD00C4540F4420C8834004F456800146F6DF1F
:1004DD00E4800B010204081020408090053AE47E70
:1004ED00019360BCA3FF543F30E509541FFEE49314
:1004FD00A360010ECF54C025E060A840B8E493A3DB
:10050D00FAE493A3F8E493A3C8C582C8CAC583CA05
:10051D00F0A3C8C582C8CAC583CADFE9DEE780BEBD
:0105460000B4
:00000001FF
