:1000E2001008C0F9A4B0999282F880908883C6A1C2
:0200F200868EF8
:0800F5007F0A7EB7DEFEDFFC8E
:0100FD0022E0
:10008F00E4FDF9FCFBFA759850758920758DFA75AA
:10009F008BFAD28E7590FFA298E4336D60F9C298F7
:1000AF00AD99A905AC90E95CFD7804A2E713D8FBE4
:1000BF00FBED540FFAD2A074082BF8E6F58012006E
:1000CF00F5C2A0D2A174082AF8E6F5801200F5C295
:0300DF00A180C439
:03000000020003F8
:0C000300787FE4F6D8FD75811702004AF2
:10000F0002008FE493A3F8E493A34003F68001F278
:10001F0008DFF48029E493A3F85407240CC8C333F2
:10002F00C4540F4420C8834004F456800146F6DFC1
:10003F00E4800B01020408102040809000E2E47E6F
:10004F00019360BCA3FF543F30E509541FFEE493B6
:10005F00A360010ECF54C025E060A840B8E493A37D
:10006F00FAE493A3F8E493A3C8C582C8CAC583CAA8
:10007F00F0A3C8C582C8CAC583CADFE9DEE780BE60
:0100F400000B
:00000001FF
