:1000BB0010083F065B4F666D7D077F6F777C395E5F
:0200CB00797149
:10008F00E4F598D2B275993F3099FDC29920B2FD2F
:10009F000518E518B41003E4F51874082518F8E6E8
:0C00AF00F5993099FDC29920B2E380FB66
:03000000020003F8
:0C000300787FE4F6D8FD75811802004AF1
:10000F0002008FE493A3F8E493A34003F68001F278
:10001F0008DFF48029E493A3F85407240CC8C333F2
:10002F00C4540F4420C8834004F456800146F6DFC1
:10003F00E4800B01020408102040809000BBE47E96
:10004F00019360BCA3FF543F30E509541FFEE493B6
:10005F00A360010ECF54C025E060A840B8E493A37D
:10006F00FAE493A3F8E493A3C8C582C8CAC583CAA8
:10007F00F0A3C8C582C8CAC583CADFE9DEE780BE60
:0100CD000032
:00000001FF
