:1000C3000A083F065B4F666D7D077F6F0A13C0F911
:0800D300A4B0999282F880901C
:0D00F400007F057E907D47DDFEDEFCDFFA1B
:0101010022DB
:030003000200DC1C
:0900DC00C0E0C0D075D000C000E6
:0800E50074132512F8E6F58002
:0700ED00D000D0D0D0E032BA
:03001300020102E5
:0401020075800032D2
:0B000600D2A8D288D2AAC28AD2AF22B0
:1000A200E4F580120006E4F51274082512F8E6F56C
:1000B200A01200F40512C3E5126480948A40EA801B
:0100C200E558
:03000000020016E5
:0C001600787FE4F6D8FD75811E02005DC5
:100022000200A2E493A3F8E493A34003F68001F252
:1000320008DFF48029E493A3F85407240CC8C333DF
:10004200C4540F4420C8834004F456800146F6DFAE
:10005200E4800B01020408102040809000C3E47E7B
:10006200019360BCA3FF543F30E509541FFEE493A3
:10007200A360010ECF54C025E060A840B8E493A36A
:10008200FAE493A3F8E493A3C8C582C8CAC583CA95
:10009200F0A3C8C582C8CAC583CADFE9DEE780BE4D
:0100DB000024
:00000001FF
