:1000E00010083F065B4F666D7D077F6F777C395E3A
:0200F000797124
:0800F3007F0A7EB7DEFEDFFC90
:0100FB0022E2
:10008F00E4FDFCFBFA7590FFF59875993F3099FDEB
:10009F00C299E5906D60FBAD90EDF4FC54F0FBEC74
:1000AF00540FFAC29974082BF8E6F5993099FDC2EE
:1000BF00B61200F3D2B67599FFC2B774082AF8E6E4
:1000CF00F5993099FDC2991200F3D2B77599FF8057
:0100DF00C15F
:03000000020003F8
:0C000300787FE4F6D8FD75811702004AF2
:10000F0002008FE493A3F8E493A34003F68001F278
:10001F0008DFF48029E493A3F85407240CC8C333F2
:10002F00C4540F4420C8834004F456800146F6DFC1
:10003F00E4800B01020408102040809000E0E47E71
:10004F00019360BCA3FF543F30E509541FFEE493B6
:10005F00A360010ECF54C025E060A840B8E493A37D
:10006F00FAE493A3F8E493A3C8C582C8CAC583CAA8
:10007F00F0A3C8C582C8CAC583CADFE9DEE780BE60
:0100F200000D
:00000001FF
