:06013F0001106401113201
:05000600D2A0C2A122FE
:05014600C2A0D2A122BD
:05014B00C2A0C2A122C8
:03000B000200D818
:1000D800C0E0C0D075D008D3E510648094E4400334
:1000E800751000D3E5116480F8E510648098400429
:0D00F800C2A28002D2A20510D0D0D0E0320A
:10011F00D3E511648094E34004E4F5112205112224
:10012F00D3E511648094814004E4F5112215112266
:10010500D2AFD2A8D288758902758C06758A06D2B7
:0A0115008CD2A9D2B87590FF80FECD
:0300030002009A5E
:10009A00C0E0C0D075D000AF90EF2411602324F8DF
:1000AA00601A24FC601124FE6008147019120006FC
:1000BA008017120146801212014B800D12011F8017
:0E00CA000812012F80037590FFD0D0D0E032D5
:0300000002000EED
:0C000E00787FE4F6D8FD758111020055E2
:10001A00020105E493A3F8E493A34003F68001F2F6
:10002A0008DFF48029E493A3F85407240CC8C333E7
:10003A00C4540F4420C8834004F456800146F6DFB6
:10004A00E4800B010204081020408090013FE47E06
:10005A00019360BCA3FF543F30E509541FFEE493AB
:10006A00A360010ECF54C025E060A840B8E493A372
:10007A00FAE493A3F8E493A3C8C582C8CAC583CA9D
:10008A00F0A3C8C582C8CAC583CADFE9DEE780BE55
:0101450000B9
:00000001FF
