:1002250000010003000200060004000C000800099C
:1002350000090008000C000400060002000300018C
:10025B00020A0000010800010900040C00001388C9
:07026C00750801E4F5092209
:07027300E4F5087509012202
:06027A00E4F508F509227D
:1001FF00C3E50F9464F50FE50E9400F50EE50D942D
:10020F0000F50DE50C9400F50C335009E4F50FF5EE
:06021F000EF50DF50C22A6
:1001C900E50F2464F50FE4350EF50EE4350DF50D54
:1001D900E4350CF50CE47FFF7EFFFDFCAB0FAA0EA6
:1001E900A90DA80CD3120245400BE4750FFE750E3C
:0601F900FFF50DF50C22DC
:10016600E50B25E0FFE50A33FE74252FF5827402C0
:100176003EF583740193F5A0AF0FAE0EAD0DAC0C3A
:080186008F138E128D118C10F5
:10018E00E4F517F516F515F514AF13AE12AD11AC67
:10019E0010AB17AA16A915A814C3120245501BE4DA
:1001AE00FAF9F8E5172401F517EA3516F516E935CB
:0A01BE0015F515E83514F51480CF8F
:0101C8002214
:10009200D2A8D288D2AF7590FFE4F5A0E509B508E1
:1000A2000512016680F6E508B4011BE4F50AF50BBA
:1000B200120166050BE50B7002050AC39408E50AF6
:1000C2006480948040EAE509640170D0F50AF50B7A
:1000D200C3E50B9408E50A6480948050BFE50B25C4
:1000E200E0FFE50A33FE74352FF5827402120176C1
:0A00F200050BE50B70DA050A80D655
:030003000200FCFC
:1000FC00C0E0C0F0C083C082C0D075D000C000C0CA
:10010C0001C002C003C004C005C006C007AF90EF19
:10011C002411602324F8601A24FC601124FE60086A
:10012C0014701912026C8017120273801212027A68
:10013C00800D1201FF80081201C980037590FFD059
:10014C0007D006D005D004D003D002D001D000D007
:0A015C00D0D082D083D0F0D0E03282
:03000000020006F5
:0C000600787FE4F6D8FD75811702004DEC
:10024500EB9FF5F0EA9E42F0E99D42F0EC6480C830
:0602550064809845F022D0
:10001200020092E493A3F8E493A34003F68001F272
:1000220008DFF48029E493A3F85407240CC8C333EF
:10003200C4540F4420C8834004F456800146F6DFBE
:10004200E4800B010204081020408090025BE47EF1
:10005200019360BCA3FF543F30E509541FFEE493B3
:10006200A360010ECF54C025E060A840B8E493A37A
:10007200FAE493A3F8E493A3C8C582C8CAC583CAA5
:10008200F0A3C8C582C8CAC583CADFE9DEE780BE5D
:01026B000092
:00000001FF
