:10000E00F2F3F5F5F6F7F8F9F9FAFAFBFBFCFCFC5E
:10001E00FDFDFDFDFEFEFEFEFEFEFEFF42C117B61D
:10002E00D0D1B621E18CD868E95B8FEE446BB4F485
:10003E002D4777A2B6DAFA1605020205020106026C
:10004E000102020401020201020106010102020480
:10005E000502020502020602010103010602010564
:10006E00020101020201020106010102020405025F
:10007E00020202020102010701010601010501024D
:10008E000502020202020302010202010102020142
:10009E000201060101020201030201020201010234
:1000AE00010202010102010701010601010501041D
:0600BE0005010400000032
:03000B000201648B
:0D016400C28CB2A585108C85118AD28C3218
:0200C4008F0AA1
:1000C600E4F50BE50BC3950A5039E4F50FF50EF58B
:1000D6000DF50CE47F107E27FDFCAB0FAA0EA90DD3
:1000E600A80CC31201535017E50F2401F50FE43590
:1000F6000EF50EE4350DF50DE4350CF50C80D40542
:050106000B80C0C28C5B
:01010B0022D1
:0D01710085108C85118AD28CAF120200C45B
:10010C00758901D2A9D2AFE4F509751201E5126027
:10011C00F6E5099000479375F007A4FFE5099000F8
:10012C0046932F14F50890000E93F510E5089000F7
:10013C002A93F511E50990004893F51274032509EB
:07014C00F50912017180C6E4
:0300000002017E7C
:0C017E00787FE4F6D8FD75811202010CB8
:10015300EB9FF5F0EA9E42F0E99D42F0E89C45F002
:010163002279
:00000001FF
