:10000E00F2F3F5F5F6F7F8F9F9FAFAFBFBFCFCFC5E
:10001E00FDFDFDFDFEFEFEFEFEFEFEFF42C117B61D
:10002E00D0D1B621E18CD868E95B8FEE446BB4F485
:10003E002D4777A2B6DAFA16050201050201030270
:10004E000102020103020106010202020103020182
:10005E00050201030201020202000002050201056F
:10006E000201030201020201030201050102020262
:10007E000103020105020103020101020200000256
:10008E00010201020201030201050201060201053D
:10009E000201030201050201030201030201020231
:1000AE00010202020000020102010202010102012C
:1000BE000202010102010201010302010502010314
:0200CE0002032B
:03000B000201707F
:0D017000C28CB28785118C85128AD28C3228
:0200D0008F0A95
:1000D200E4F50BE50BC3950A5039E4F50FF50EF57F
:1000E2000DF50CE47F407E1FFDFCAB0FAA0EA90D9F
:1000F200A80CC312015F5017E50F2401F50FE43578
:100102000EF50EE4350DF50DE4350CF50C80D40535
:050112000B80C0C28C4F
:0101170022C5
:0D017D0085118C85128AD28CAF100200D043
:10011800758901D2A9D2AFE4F509751001E510601F
:10012800F6E5099000479375F007A4FFE5099000EC
:1001380046932F14F50890000E93F511E5089000EA
:100148002A93F512E50990004893F51074032509E0
:07015800F50912017D80C6CC
:0300000002018A70
:0C018A00787FE4F6D8FD758112020118A0
:10015F00EB9FF5F0EA9E42F0E99D42F0E89C45F0F6
:01016F00226D
:00000001FF
