:020000002100DD
:02002300213387
:100100007581607598F0758920758DFD758BFDD2B0
:100110008ED2ACD2AF317A75A081318F9001B531DA
:100120006A75A0C1318F9001C1316A754000C2B5B6
:10013000002130C2ACC298E599B40127D2B57599B7
:10014000103099FDC299C29DE54075A0C9318F90CC
:1001500001C8E54093F5A0319A0540E540B40A0393
:10016000754000C2B5D29DD2AC32740093B4FF0288
:100170002179F5A0319AA3216A2275A001318F75EA
:10018000A006318F75A00C318F75A038318F22C237
:1001900097C296C29531A5D29522D297C296C295A2
:1001A00031A5D2952275A0FFC297D296C29500D2F2
:1001B0009520A7F12250726F7465757320372E3128
:1001C000FF436F756E743AFF31323334353637384A
:0201D0003930C4
:00000001FF
