:0300FB00010800F9
:10009200E508B401147599013099FDC299C2B5C23F
:1000A2009D3098FDC2988599A0E508B4021475990F
:1000B200023099FDC299C2B5C29D3098FDC29885A1
:0F00C20099A0E508B40203E4F508D29DD2B52257
:030003000200ED0B
:0E00ED00C0E0C0D00508120092D0D0D0E032A2
:1000D10075A0F07598F8758920758BFD758DFDD229
:0C00E1008ED2AFD2A8D288D2B50080FD2C
:03000000020006F5
:0C000600787FE4F6D8FD75810802004DFB
:100012000200D1E493A3F8E493A34003F68001F233
:1000220008DFF48029E493A3F85407240CC8C333EF
:10003200C4540F4420C8834004F456800146F6DFBE
:10004200E4800B01020408102040809000FBE47E53
:10005200019360BCA3FF543F30E509541FFEE493B3
:10006200A360010ECF54C025E060A840B8E493A37A
:10007200FAE493A3F8E493A3C8C582C8CAC583CAA5
:10008200F0A3C8C582C8CAC583CADFE9DEE780BE5D
:0100FE000001
:00000001FF
