:10000300404346494C4F5255585B5E606366686A8D
:100013006D6F7173757678797B7C7D7E7E7F7F7F54
:100023007F7F7F7F7E7E7D7C7B7978767573716F32
:100033006D6A686663605E5B5855524F4C49464330
:10004300403C393633302D2A2724211F1C1917151C
:1000530012100E0C0A090706040302010100000036
:100063000000000001010203040607090A0C0E1038
:10007300121517191C1F2124272A2D303336393C1A
:0B014900EF1FAC0670011E4C70F62288
:10010500E590B4FE18907FFF74FFF07FF47E011236
:0E0115000149E4F07FF47E0112014980E322EB
:10008300E59064FD7027FEFF0FBF00010EEFF44EF5
:1000930070F6907FFFEFF07E007FFFEF1F70011E71
:0D00A300EF4E70F7907FFFEFF0E4F080D398
:0100B000222D
:10012300E590B4FB14E4FEFF0FBF00010EEFF44EA5
:0901330070F6907FFFEFF080E709
:01013C0022A0
:1000B100E590B4F725E4FEFFC3EF9480EE648094ED
:1000C1008050ED74032FF58274003EF583E4939024
:0A00D1007FFFF00FBF00010E80DE7C
:0100DB002202
:1000DC007590FFAF90EF2409601A24FC601124FE88
:1000EC0060081470EE12010580E912008380E4129E
:0900FC00012380DF1200B180DA5B
:0300000002013DBD
:0C013D00787FE4F6D8FD7581070200DC35
:00000001FF
