:0400030002080000EF
:03000B0002009A56
:10009A00C0E0758C3C758AB00509E509700205084F
:1000AA00641445087008F508F509B280B281E509BB
:1000BA00642845087009F508750914B282B281E509
:1000CA0009643C45087009F508750928B282B280AE
:0300DA00D0E03241
:1000DD00758901758C3C758AB0D2AFD2A9D28C22AC
:0B00ED00C280C281D2821200DD80FEC2
:0300000002000EED
:0C000E00787FE4F6D8FD758109020055EA
:10001A000200EDE493A3F8E493A34003F68001F20F
:10002A0008DFF48029E493A3F85407240CC8C333E7
:10003A00C4540F4420C8834004F456800146F6DFB6
:10004A00E4800B0102040810204080900003E47E43
:10005A00019360BCA3FF543F30E509541FFEE493AB
:10006A00A360010ECF54C025E060A840B8E493A372
:10007A00FAE493A3F8E493A3C8C582C8CAC583CA9D
:10008A00F0A3C8C582C8CAC583CADFE9DEE780BE55
:0100070000F8
:00000001FF
