:0C0108000A083F065B4F666D7D077F6FA5
:1000F000E4FDFCC3ED9FEE6480F8EC64809850074B
:070100000DBD00010C80ECB5
:0101070022D5
:10008F00E4F5A075B0FFE5B0F460FB7FD07E0712FA
:10009F0000F0E5B0F460FBAFB0EF2481603E24C008
:1000AF00603524E0602C24F0602324F8601A24FCCF
:1000BF00601124FE60081470CD8509A080C8850AE0
:1000CF00A080C3850BA080BE850CA080B9850DA034
:1000DF0080B4850EA080AF850FA080AA8510A08068
:0100EF00A56B
:03000000020003F8
:0C000300787FE4F6D8FD75811502004AF4
:10000F0002008FE493A3F8E493A34003F68001F278
:10001F0008DFF48029E493A3F85407240CC8C333F2
:10002F00C4540F4420C8834004F456800146F6DFC1
:10003F00E4800B0102040810204080900108E47E48
:10004F00019360BCA3FF543F30E509541FFEE493B6
:10005F00A360010ECF54C025E060A840B8E493A37D
:10006F00FAE493A3F8E493A3C8C582C8CAC583CAA8
:10007F00F0A3C8C582C8CAC583CADFE9DEE780BE60
:0101140000EA
:00000001FF
