:10093A00020B024B029302BA0310037003DC041782
:10094A00049705270575062006E007B8FC8FFCEF1B
:10095A00FD45FD6CFDB5FDF5FE2EFE48FE78FEA3B5
:10096A00FEB7FEDBFEFBFF170605060504040404BA
:10097A00040404040404080404080301030104042D
:0C098A0003010301040404040804040831
:0A09FA00C180C1010108FF010900DE
:10099600D2AF75890185088C85098AD2A9D28C12B5
:1009A6000800900000AF82AE83E4FCFD7B407A9C99
:0B09B600F9F8D31209D340E7A380EA50
:10080000E4FBFAFDFCFFFEF9E9C39404400302088F
:10081000AD3001FDC201EB4A7070E990097293148A
:10082000F50A25E02456F582E43409F583E493F5CE
:1008300008E50A25E02456F582E43409F5837401BD
:1008400093F509E990097693FF7E00E50A25E024F7
:100850003AF582E43409F583E493FC740193FD12C4
:1008600009C1EF7802CEC313CE13D8F9FDAC0678D8
:1008700002CEC313CE13D8F9FFC3ED9FFFEC9EFE4B
:10088000D2000BBB00010A020808C3EB9DEA9C40A2
:1008900007E4FAFB090208080BBB00010AEB6F70C2
:0D08A00002EA6E6003020808C200020808A8
:0108AD002228
:03000B000209E9FE
:1009E90085088C85098AD201300003B29632D296E5
:0109F90032CB
:030000000208AE45
:0C08AE00787FE4F6D8FD7581200208F583
:1009C100EF8DF0A4A8F0CF8CF0A428CE8DF0A42E4A
:0209D100FE2204
:1009D300EB9FF5F0EA9E42F0E99D42F0EC6480C89B
:0609E30064809845F0223B
:1008BA00020996E493A3F8E493A34003F68001F2B5
:1008CA0008DFF48029E493A3F85407240CC8C3333F
:1008DA00C4540F4420C8834004F456800146F6DF0E
:1008EA00E4800B01020408102040809009FAE47E9B
:1008FA00019360BCA3FF543F30E509541FFEE49303
:10090A00A360010ECF54C025E060A840B8E493A3C9
:10091A00FAE493A3F8E493A3C8C582C8CAC583CAF4
:10092A00F0A3C8C582C8CAC583CADFE9DEE780BEAC
:010A040000F1
:00000001FF
