:1000A200180900FF000000FF000000FF000000FF31
:1000B200000000FF000000FF000020402100FE00C1
:1000C200FD00FB00F700EF00DF00BF007F00FE0035
:1000D200FD00FB00F700EF00DF00BF007F00FE0025
:1000E200FD00FB00F700EF00DF00BF007F00FE0015
:0D00F200FD00FB00F700EF00DF00BF007F06
:10016E00E4FFFEE4FDFC0DBD00010CE4B505F7EC6B
:10017E00B401F30FBF00010EE4B507E7EEB401E3DF
:01018E00224E
:03000300020100F7
:10010000C0E0C0D075D000C000C003C004C005C0AE
:0301100006C0071F
:10011300E4FBEB25E02409F808E6F58012016E0BF9
:03012300BB0DEF22
:10012600D007D006D005D004D003D000D0D0D0E080
:010136003296
:03001300020137B0
:10013700C0E0C0D075D000C000C003C004C005C077
:0301470006C007E8
:10014A00E4FBEB25E02421F808E6F58012016E0BAA
:03015A00BB20EFD8
:10015D00D007D006D005D004D003D000D0D0D0E049
:01016D00325F
:09018F0075A88575B801E4F58836
:10019800E4F5616380FF12016E0561C3E561648067
:0601A800949740EF80EA8D
:03000000020016E5
:0C001600787FE4F6D8FD75816102005D82
:1000220002018FE493A3F8E493A34003F68001F264
:1000320008DFF48029E493A3F85407240CC8C333DF
:10004200C4540F4420C8834004F456800146F6DFAE
:10005200E4800B01020408102040809000A2E47E9C
:10006200019360BCA3FF543F30E509541FFEE493A3
:10007200A360010ECF54C025E060A840B8E493A36A
:10008200FAE493A3F8E493A3C8C582C8CAC583CA95
:10009200F0A3C8C582C8CAC583CADFE9DEE780BE4D
:0100FF000000
:00000001FF
