:100109001A0900F0000F00F0000F00F0000F00AA1C
:10011900005500AA005500AA005500FF2040230001
:10012900FE00FD00FB00F700EF00DF00BF007F00CD
:10013900BF00DF00EF00F700FB00FD00FE00FF003D
:10014900FE00FD00FB00F700EF00DF00BF007F00AD
:0F015900BF00DF00EF00F700FB00FD00FE00FF1E
:10018C00E4FFFEE4FDFC0DBD00010CE4B505F7EC4D
:10019C00B401F30FBF00010EE4B507E7EEB401E3C1
:0101AC002230
:030003000200A256
:1000A200C0E0C0D075D000C000C004C005C006C00A
:0800B200070508E508B4011C74
:1000BA00756300E56325E02409F808E6F580120176
:0C00CA008C0563C3E5636480948D40E7FF
:0500D600E508B4021F63
:1000DB00756300E56325E02423F808E6F58012013B
:0F00EB008C0563C3E563648094A040E77508004B
:0F00FA00D007D006D005D004D000D0D0D0E0324F
:030013000201697E
:10016900C0E0C0D075D000C004C005C006C007C239
:100179009012018CD290D007D006D005D004D0D0EF
:03018900D0E03291
:0B01AD0075A88575B804E4F588F50816
:1001B800E4F5646380FF12018C0564C3E564648020
:0601C800949740EF80EA6D
:03000000020016E5
:0C001600787FE4F6D8FD75816402005D7F
:100022000201ADE493A3F8E493A34003F68001F246
:1000320008DFF48029E493A3F85407240CC8C333DF
:10004200C4540F4420C8834004F456800146F6DFAE
:10005200E4800B0102040810204080900109E47E34
:10006200019360BCA3FF543F30E509541FFEE493A3
:10007200A360010ECF54C025E060A840B8E493A36A
:10008200FAE493A3F8E493A3C8C582C8CAC583CA95
:10009200F0A3C8C582C8CAC583CADFE9DEE780BE4D
:010168000096
:00000001FF
