:0904A1003F065B4F666D7D7F6F25
:03000B00020003ED
:03000300B2A43272
:100340007508DC758902758CF6758AF675A882D2F7
:100350008CC2A5D2A5C2A5E4F5090509E509B41426
:10036000F930A6FDD2A7AB90C2A7AC03EC1201BE38
:10037000E4FBFA79617843120117C004C005C00696
:10038000C007AC08EC1201BEA804A905AA06AB0779
:10039000D007D006D005D00412000E1201F2AB0730
:1003A000EB75F064120273FAFF3395E0FE7C007D7A
:1003B00064120295EBFD3395E0FCC3ED9FFFEC9ECC
:1003C000FE7C007D0A1202A7EA75F064A4FEC3EB6E
:1003D0009EFEEF75F00AA4FDC3EE9DFEEA6023C207
:1003E000A3FD3395E0FC74A12DF58274043CF583E4
:1003F000E493F580E4F5090509E509B419F9D2A3F8
:100400008010C2A3E4F580F5090509E509B419F9DE
:10041000D2A3EA7038EF6023C2A2FD3395E0FC74EA
:10042000A12DF58274043CF583E493F580E4F5098D
:100430000509E509B419F9D2A28034C2A2E4F58015
:10044000F5090509E509B419F9D2A28022C2A2EF83
:10045000FD3395E0FC74A12DF58274043CF583E432
:1004600093F580E4F5090509E509B419F9D2A2C2AA
:10047000A1AF06EF3395E0FE74A12FF58274043E20
:10048000F583E493F580E4F5090509E509B419F964
:05049000D2A10203519E
:10000E00EC4D6011E8497017ED33EC3304600DE4EC
:10001E00FCFFFEFD22E933E8330470F802025E12A3
:10002E00022958046009E4CC2481500628500902A4
:10003E000268284003020265C0E0EB4A7044B980B2
:10004E0006D0E0FB020254EF4E701CBD8008EBFFA1
:10005E00EAFEE9FD80EBE98DF0A4FEE5F00200F783
:10006E00E9CDF9EAFEEBFFEF89F0A4FCE5F0CE89CD
:10007E00F0A42EFFE435F0CD89F0A42DFEE435F08A
:10008E008067EF4E7005BD80D780C3EF8BF0A4ACB8
:10009E00F0EE8BF0A42CFCE435F0F8EF8AF0A42CF3
:1000AE00E5F038FCE433CB8DF0A42CFCE5F03BF806
:1000BE00EE8AF0A42CFCE5F038F8E433CF89F0A4F6
:1000CE002CFCE5F038CF3400CE89F0A42FFFE5F0FC
:1000DE003EFEE433C98DF0A42EFEE5F039CD8AF054
:1000EE00A42FFFE5F03EFEE43DFD33D0E0FB5007CC
:1000FE000BBB000F020268EC2CFCEF33FFEE33FE5D
:06010E00ED33FD0202408A
:10011400020268EC5D046005E85904700302025EA3
:10012400120229580460F6EC4860F2EC7004FDFEFB
:10013400FF22C860DB2481C85009C39860025006BE
:100144000202659850CAF582E9294B4A7005AB82D0
:1001540002025475F0007C1A7880C3EF9BEE9AED8E
:1001640099400DC3EF9BFFEE9AFEED99FDE842F036
:10017400DC23ACF0D0E0FFD0E0FED0E0FDAB822089
:10018400E7101BEB60BAEC2CFCEF33FFEE33FEED13
:1001940033FD020240E803F830E705C0F075F000D3
:1001A400EF2FFFEE33FEED33FD40B830E7C280AAF7
:1001B40075F020800E75F010800575F0087D007EC6
:1001C400007F003392D530D5031202DDEC334010AA
:1001D400EF33FFEE33FEED33FDEC33FCD5F0ED22CF
:0E01E400E5F0247EA2D513CC92E7CDCEFF220B
:1001F200EDD2E7CD33EC3392D524814006E4FFFE05
:10020200FDFC22FCE4CFCECDCC24E0501174FF8063
:10021200EDC3CC13CCCD13CDCE13CECF13CF047000
:07022200F030D5DE0202DD21
:10022900E9D2E7C933E833F892D5EDD2E7CD33EC1B
:0702390033FC5002B2D52294
:10024000EC30E7100FBF000C0EBE00080DBD00041F
:100250000BEB6014A2D5EB13FCED92E7FD2274FFCB
:10026000FCFDFEFF22E480F8A2D574FF13FC7D8024
:03027000E480EF38
:0300000002049562
:0C049500787FE4F6D8FD75810902034071
:10027300C2D530F707B2D563F0FF05F030E70CB213
:10028300D5F4048463F0FF05F080018430D502F4D3
:02029300042243
:10029500EF8DF0A4A8F0CF8CF0A428CE8DF0A42E7D
:0202A500FE2237
:1002A700C2D5EC30E709B2D5E4C39DFDE49CFCEE72
:1002B70030E715B2D5E4C39FFFE49EFE1202EBC3FD
:1002C700E49DFDE49CFC80031202EB30D507C3E4F8
:0602D7009FFFE49EFE22E1
:0E02DD00C3E49FFFE49EFEE49DFDE49CFC2232
:1002EB00BC000BBE0029EF8DF084FFADF022E4CCF7
:1002FB00F875F008EF2FFFEE33FEEC33FCEE9DECC0
:10030B00984005FCEE9DFE0FD5F0E9E4CEFD22ED05
:10031B00F8F5F0EE8420D21CFEADF075F008EF2F4F
:10032B00FFED33FD4007985006D5F0F222C398FD40
:05033B000FD5F0EA22DD
:00000001FF
