:0400C700020800002B
:10008F00E4F589758CFC758A1CD28CD290308DFD6D
:10009F000509E50970020508C28D64024508700262
:1000AF00C290E509640A45087006F508F509D29073
:0800BF00758CFC758A1C80D5CC
:03000000020003F8
:0C000300787FE4F6D8FD75810902004A00
:10000F0002008FE493A3F8E493A34003F68001F278
:10001F0008DFF48029E493A3F85407240CC8C333F2
:10002F00C4540F4420C8834004F456800146F6DFC1
:10003F00E4800B01020408102040809000C7E47E8A
:10004F00019360BCA3FF543F30E509541FFEE493B6
:10005F00A360010ECF54C025E060A840B8E493A37D
:10006F00FAE493A3F8E493A3C8C582C8CAC583CAA8
:10007F00F0A3C8C582C8CAC583CADFE9DEE780BE60
:0100CB000034
:00000001FF
